


ARM Macro Assembler    Page 1 


    1 00000000         ;******************** (C) COPYRIGHT 2016 STMicroelectron
                       ics ********************
    2 00000000         ;* File Name          : startup_stm32l073xx.s
    3 00000000         ;* Author             : MCD Application Team
    4 00000000         ;* Version            : V1.7.1
    5 00000000         ;* Date               : 25-November-2016
    6 00000000         ;* Description        : STM32l073xx Devices vector table
                        for MDK-ARM toolchain.
    7 00000000         ;*                      This module performs:
    8 00000000         ;*                      - Set the initial SP
    9 00000000         ;*                      - Set the initial PC == Reset_Ha
                       ndler
   10 00000000         ;*                      - Set the vector table entries w
                       ith the exceptions ISR address
   11 00000000         ;*                      - Branches to __main in the C li
                       brary (which eventually
   12 00000000         ;*                        calls main()).
   13 00000000         ;*                      After Reset the Cortex-M0+ proce
                       ssor is in Thread mode,
   14 00000000         ;*                      priority is Privileged, and the 
                       Stack is set to Main.
   15 00000000         ;*******************************************************
                       ************************
   16 00000000         ;* 
   17 00000000         ;* Redistribution and use in source and binary forms, wi
                       th or without modification,
   18 00000000         ;* are permitted provided that the following conditions 
                       are met:
   19 00000000         ;*   1. Redistributions of source code must retain the a
                       bove copyright notice,
   20 00000000         ;*      this list of conditions and the following discla
                       imer.
   21 00000000         ;*   2. Redistributions in binary form must reproduce th
                       e above copyright notice,
   22 00000000         ;*      this list of conditions and the following discla
                       imer in the documentation
   23 00000000         ;*      and/or other materials provided with the distrib
                       ution.
   24 00000000         ;*   3. Neither the name of STMicroelectronics nor the n
                       ames of its contributors
   25 00000000         ;*      may be used to endorse or promote products deriv
                       ed from this software
   26 00000000         ;*      without specific prior written permission.
   27 00000000         ;*
   28 00000000         ;* THIS SOFTWARE IS PROVIDED BY THE COPYRIGHT HOLDERS AN
                       D CONTRIBUTORS "AS IS"
   29 00000000         ;* AND ANY EXPRESS OR IMPLIED WARRANTIES, INCLUDING, BUT
                        NOT LIMITED TO, THE
   30 00000000         ;* IMPLIED WARRANTIES OF MERCHANTABILITY AND FITNESS FOR
                        A PARTICULAR PURPOSE ARE
   31 00000000         ;* DISCLAIMED. IN NO EVENT SHALL THE COPYRIGHT HOLDER OR
                        CONTRIBUTORS BE LIABLE
   32 00000000         ;* FOR ANY DIRECT, INDIRECT, INCIDENTAL, SPECIAL, EXEMPL
                       ARY, OR CONSEQUENTIAL
   33 00000000         ;* DAMAGES (INCLUDING, BUT NOT LIMITED TO, PROCUREMENT O
                       F SUBSTITUTE GOODS OR
   34 00000000         ;* SERVICES; LOSS OF USE, DATA, OR PROFITS; OR BUSINESS 
                       INTERRUPTION) HOWEVER
   35 00000000         ;* CAUSED AND ON ANY THEORY OF LIABILITY, WHETHER IN CON



ARM Macro Assembler    Page 2 


                       TRACT, STRICT LIABILITY,
   36 00000000         ;* OR TORT (INCLUDING NEGLIGENCE OR OTHERWISE) ARISING I
                       N ANY WAY OUT OF THE USE
   37 00000000         ;* OF THIS SOFTWARE, EVEN IF ADVISED OF THE POSSIBILITY 
                       OF SUCH DAMAGE.
   38 00000000         ;*
   39 00000000         ;*******************************************************
                       ************************
   40 00000000         ;
   41 00000000         ; Amount of memory (in bytes) allocated for Stack
   42 00000000         ; Tailor this value to your application needs
   43 00000000         ; <h> Stack Configuration
   44 00000000         ;   <o> Stack Size (in Bytes) <0x0-0xFFFFFFFF:8>
   45 00000000         ; </h>
   46 00000000         
   47 00000000 00000800 
                       Stack_Size
                               EQU              0x800
   48 00000000         
   49 00000000                 AREA             STACK, NOINIT, READWRITE, ALIGN
=3
   50 00000000         Stack_Mem
                               SPACE            Stack_Size
   51 00000800         __initial_sp
   52 00000800         
   53 00000800         
   54 00000800         ; <h> Heap Configuration
   55 00000800         ;   <o>  Heap Size (in Bytes) <0x0-0xFFFFFFFF:8>
   56 00000800         ; </h>
   57 00000800         
   58 00000800 00000400 
                       Heap_Size
                               EQU              0x400
   59 00000800         
   60 00000800                 AREA             HEAP, NOINIT, READWRITE, ALIGN=
3
   61 00000000         __heap_base
   62 00000000         Heap_Mem
                               SPACE            Heap_Size
   63 00000400         __heap_limit
   64 00000400         
   65 00000400                 PRESERVE8
   66 00000400                 THUMB
   67 00000400         
   68 00000400         
   69 00000400         ; Vector Table Mapped to Address 0 at Reset
   70 00000400                 AREA             RESET, DATA, READONLY
   71 00000000                 EXPORT           __Vectors
   72 00000000                 EXPORT           __Vectors_End
   73 00000000                 EXPORT           __Vectors_Size
   74 00000000         
   75 00000000 00000000 
                       __Vectors
                               DCD              __initial_sp ; Top of Stack
   76 00000004 00000000        DCD              Reset_Handler ; Reset Handler
   77 00000008 00000000        DCD              NMI_Handler ; NMI Handler
   78 0000000C 00000000        DCD              HardFault_Handler ; Hard Fault 
                                                            Handler
   79 00000010 00000000        DCD              0           ; Reserved



ARM Macro Assembler    Page 3 


   80 00000014 00000000        DCD              0           ; Reserved
   81 00000018 00000000        DCD              0           ; Reserved
   82 0000001C 00000000        DCD              0           ; Reserved
   83 00000020 00000000        DCD              0           ; Reserved
   84 00000024 00000000        DCD              0           ; Reserved
   85 00000028 00000000        DCD              0           ; Reserved
   86 0000002C 00000000        DCD              SVC_Handler ; SVCall Handler
   87 00000030 00000000        DCD              0           ; Reserved
   88 00000034 00000000        DCD              0           ; Reserved
   89 00000038 00000000        DCD              PendSV_Handler ; PendSV Handler
                                                            
   90 0000003C 00000000        DCD              SysTick_Handler 
                                                            ; SysTick Handler
   91 00000040         
   92 00000040         ; External Interrupts
   93 00000040 00000000        DCD              WWDG_IRQHandler 
                                                            ; Window Watchdog
   94 00000044 00000000        DCD              PVD_IRQHandler ; PVD through EX
                                                            TI Line detect
   95 00000048 00000000        DCD              RTC_IRQHandler ; RTC through EX
                                                            TI Line
   96 0000004C 00000000        DCD              FLASH_IRQHandler ; FLASH
   97 00000050 00000000        DCD              RCC_CRS_IRQHandler 
                                                            ; RCC and CRS
   98 00000054 00000000        DCD              EXTI0_1_IRQHandler 
                                                            ; EXTI Line 0 and 1
                                                            
   99 00000058 00000000        DCD              EXTI2_3_IRQHandler 
                                                            ; EXTI Line 2 and 3
                                                            
  100 0000005C 00000000        DCD              EXTI4_15_IRQHandler 
                                                            ; EXTI Line 4 to 15
                                                            
  101 00000060 00000000        DCD              TSC_IRQHandler ; TSC
  102 00000064 00000000        DCD              DMA1_Channel1_IRQHandler 
                                                            ; DMA1 Channel 1
  103 00000068 00000000        DCD              DMA1_Channel2_3_IRQHandler ; DM
                                                            A1 Channel 2 and Ch
                                                            annel 3
  104 0000006C 00000000        DCD              DMA1_Channel4_5_6_7_IRQHandler 
                                                            ; DMA1 Channel 4, C
                                                            hannel 5, Channel 6
                                                             and Channel 7
  105 00000070 00000000        DCD              ADC1_COMP_IRQHandler ; ADC1, CO
                                                            MP1 and COMP2 
  106 00000074 00000000        DCD              LPTIM1_IRQHandler ; LPTIM1
  107 00000078 00000000        DCD              USART4_5_IRQHandler 
                                                            ; USART4 and USART5
                                                            
  108 0000007C 00000000        DCD              TIM2_IRQHandler ; TIM2
  109 00000080 00000000        DCD              TIM3_IRQHandler ; TIM3
  110 00000084 00000000        DCD              TIM6_DAC_IRQHandler 
                                                            ; TIM6 and DAC
  111 00000088 00000000        DCD              TIM7_IRQHandler ; TIM7
  112 0000008C 00000000        DCD              0           ; Reserved
  113 00000090 00000000        DCD              TIM21_IRQHandler ; TIM21
  114 00000094 00000000        DCD              I2C3_IRQHandler ; I2C3
  115 00000098 00000000        DCD              TIM22_IRQHandler ; TIM22
  116 0000009C 00000000        DCD              I2C1_IRQHandler ; I2C1



ARM Macro Assembler    Page 4 


  117 000000A0 00000000        DCD              I2C2_IRQHandler ; I2C2
  118 000000A4 00000000        DCD              SPI1_IRQHandler ; SPI1
  119 000000A8 00000000        DCD              SPI2_IRQHandler ; SPI2
  120 000000AC 00000000        DCD              USART1_IRQHandler ; USART1
  121 000000B0 00000000        DCD              USART2_IRQHandler ; USART2
  122 000000B4 00000000        DCD              RNG_LPUART1_IRQHandler 
                                                            ; RNG and LPUART1
  123 000000B8 00000000        DCD              LCD_IRQHandler ; LCD
  124 000000BC 00000000        DCD              USB_IRQHandler ; USB
  125 000000C0         
  126 000000C0         __Vectors_End
  127 000000C0         
  128 000000C0 000000C0 
                       __Vectors_Size
                               EQU              __Vectors_End - __Vectors
  129 000000C0         
  130 000000C0                 AREA             |.text|, CODE, READONLY
  131 00000000         
  132 00000000         ; Reset handler routine
  133 00000000         Reset_Handler
                               PROC
  134 00000000                 EXPORT           Reset_Handler                 [
WEAK]
  135 00000000                 IMPORT           __main
  136 00000000                 IMPORT           SystemInit
  137 00000000 4804            LDR              R0, =SystemInit
  138 00000002 4780            BLX              R0
  139 00000004 4804            LDR              R0, =__main
  140 00000006 4700            BX               R0
  141 00000008                 ENDP
  142 00000008         
  143 00000008         ; Dummy Exception Handlers (infinite loops which can be 
                       modified)
  144 00000008         
  145 00000008         NMI_Handler
                               PROC
  146 00000008                 EXPORT           NMI_Handler                    
[WEAK]
  147 00000008 E7FE            B                .
  148 0000000A                 ENDP
  150 0000000A         HardFault_Handler
                               PROC
  151 0000000A                 EXPORT           HardFault_Handler              
[WEAK]
  152 0000000A E7FE            B                .
  153 0000000C                 ENDP
  154 0000000C         SVC_Handler
                               PROC
  155 0000000C                 EXPORT           SVC_Handler                    
[WEAK]
  156 0000000C E7FE            B                .
  157 0000000E                 ENDP
  158 0000000E         PendSV_Handler
                               PROC
  159 0000000E                 EXPORT           PendSV_Handler                 
[WEAK]
  160 0000000E E7FE            B                .
  161 00000010                 ENDP
  162 00000010         SysTick_Handler



ARM Macro Assembler    Page 5 


                               PROC
  163 00000010                 EXPORT           SysTick_Handler                
[WEAK]
  164 00000010 E7FE            B                .
  165 00000012                 ENDP
  166 00000012         
  167 00000012         Default_Handler
                               PROC
  168 00000012         
  169 00000012                 EXPORT           WWDG_IRQHandler                
[WEAK]
  170 00000012                 EXPORT           PVD_IRQHandler                 
[WEAK]
  171 00000012                 EXPORT           RTC_IRQHandler                 
[WEAK]
  172 00000012                 EXPORT           FLASH_IRQHandler               
[WEAK]
  173 00000012                 EXPORT           RCC_CRS_IRQHandler             
[WEAK]
  174 00000012                 EXPORT           EXTI0_1_IRQHandler             
[WEAK]
  175 00000012                 EXPORT           EXTI2_3_IRQHandler             
[WEAK]
  176 00000012                 EXPORT           EXTI4_15_IRQHandler            
[WEAK]
  177 00000012                 EXPORT           TSC_IRQHandler                 
 [WEAK]
  178 00000012                 EXPORT           DMA1_Channel1_IRQHandler       
[WEAK]
  179 00000012                 EXPORT           DMA1_Channel2_3_IRQHandler     
[WEAK]
  180 00000012                 EXPORT           DMA1_Channel4_5_6_7_IRQHandler 
[WEAK]
  181 00000012                 EXPORT           ADC1_COMP_IRQHandler           
[WEAK]
  182 00000012                 EXPORT           LPTIM1_IRQHandler              
[WEAK]
  183 00000012                 EXPORT           USART4_5_IRQHandler            
[WEAK]
  184 00000012                 EXPORT           TIM2_IRQHandler                
[WEAK]
  185 00000012                 EXPORT           TIM3_IRQHandler                
[WEAK]
  186 00000012                 EXPORT           TIM6_DAC_IRQHandler            
[WEAK]
  187 00000012                 EXPORT           TIM7_IRQHandler                
[WEAK]
  188 00000012                 EXPORT           TIM21_IRQHandler               
[WEAK]
  189 00000012                 EXPORT           TIM22_IRQHandler               
[WEAK]
  190 00000012                 EXPORT           I2C1_IRQHandler                
[WEAK]
  191 00000012                 EXPORT           I2C2_IRQHandler                
[WEAK]
  192 00000012                 EXPORT           I2C3_IRQHandler                
[WEAK]
  193 00000012                 EXPORT           SPI1_IRQHandler                
[WEAK]



ARM Macro Assembler    Page 6 


  194 00000012                 EXPORT           SPI2_IRQHandler                
[WEAK]
  195 00000012                 EXPORT           USART1_IRQHandler              
[WEAK]
  196 00000012                 EXPORT           USART2_IRQHandler              
[WEAK]
  197 00000012                 EXPORT           RNG_LPUART1_IRQHandler         
[WEAK]
  198 00000012                 EXPORT           LCD_IRQHandler                 
[WEAK]
  199 00000012                 EXPORT           USB_IRQHandler                 
[WEAK]
  200 00000012         
  201 00000012         
  202 00000012         WWDG_IRQHandler
  203 00000012         PVD_IRQHandler
  204 00000012         RTC_IRQHandler
  205 00000012         FLASH_IRQHandler
  206 00000012         RCC_CRS_IRQHandler
  207 00000012         EXTI0_1_IRQHandler
  208 00000012         EXTI2_3_IRQHandler
  209 00000012         EXTI4_15_IRQHandler
  210 00000012         TSC_IRQHandler
  211 00000012         DMA1_Channel1_IRQHandler
  212 00000012         DMA1_Channel2_3_IRQHandler
  213 00000012         DMA1_Channel4_5_6_7_IRQHandler
  214 00000012         ADC1_COMP_IRQHandler
  215 00000012         LPTIM1_IRQHandler
  216 00000012         USART4_5_IRQHandler
  217 00000012         TIM2_IRQHandler
  218 00000012         TIM3_IRQHandler
  219 00000012         TIM6_DAC_IRQHandler
  220 00000012         TIM7_IRQHandler
  221 00000012         TIM21_IRQHandler
  222 00000012         TIM22_IRQHandler
  223 00000012         I2C1_IRQHandler
  224 00000012         I2C2_IRQHandler
  225 00000012         I2C3_IRQHandler
  226 00000012         SPI1_IRQHandler
  227 00000012         SPI2_IRQHandler
  228 00000012         USART1_IRQHandler
  229 00000012         USART2_IRQHandler
  230 00000012         RNG_LPUART1_IRQHandler
  231 00000012         LCD_IRQHandler
  232 00000012         USB_IRQHandler
  233 00000012         
  234 00000012 E7FE            B                .
  235 00000014         
  236 00000014                 ENDP
  237 00000014         
  238 00000014                 ALIGN
  239 00000014         
  240 00000014         ;*******************************************************
                       ************************
  241 00000014         ; User Stack and Heap initialization
  242 00000014         ;*******************************************************
                       ************************
  243 00000014                 IF               :DEF:__MICROLIB
  244 00000014         



ARM Macro Assembler    Page 7 


  245 00000014                 EXPORT           __initial_sp
  246 00000014                 EXPORT           __heap_base
  247 00000014                 EXPORT           __heap_limit
  248 00000014         
  249 00000014                 ELSE
  264                          ENDIF
  265 00000014         
  266 00000014                 END
              00000000 
              00000000 
Command Line: --debug --xref --diag_suppress=9931 --cpu=Cortex-M0+ --apcs=inter
work --depend=dayone\startup_stm32l073xx.d -odayone\startup_stm32l073xx.o -I..\
Inc -IC:\Users\Pr_ohm\Desktop\DAYONE\MDK-ARM\RTE\_DAYONE -IC:\Keil_v5\ARM\PACK\
ARM\CMSIS\5.0.0\CMSIS\Include -IC:\Keil_v5\ARM\PACK\Keil\STM32L0xx_DFP\1.6.0\De
vice\Include --predefine="__EVAL SETA 1" --predefine="__MICROLIB SETA 1" --pred
efine="__UVISION_VERSION SETA 522" --predefine="_RTE_ SETA 1" --predefine="STM3
2L073xx SETA 1" --list=startup_stm32l073xx.lst startup_stm32l073xx.s



ARM Macro Assembler    Page 1 Alphabetic symbol ordering
Relocatable symbols

STACK 00000000

Symbol: STACK
   Definitions
      At line 49 in file startup_stm32l073xx.s
   Uses
      None
Comment: STACK unused
Stack_Mem 00000000

Symbol: Stack_Mem
   Definitions
      At line 50 in file startup_stm32l073xx.s
   Uses
      None
Comment: Stack_Mem unused
__initial_sp 00000800

Symbol: __initial_sp
   Definitions
      At line 51 in file startup_stm32l073xx.s
   Uses
      At line 75 in file startup_stm32l073xx.s
      At line 245 in file startup_stm32l073xx.s

3 symbols



ARM Macro Assembler    Page 1 Alphabetic symbol ordering
Relocatable symbols

HEAP 00000000

Symbol: HEAP
   Definitions
      At line 60 in file startup_stm32l073xx.s
   Uses
      None
Comment: HEAP unused
Heap_Mem 00000000

Symbol: Heap_Mem
   Definitions
      At line 62 in file startup_stm32l073xx.s
   Uses
      None
Comment: Heap_Mem unused
__heap_base 00000000

Symbol: __heap_base
   Definitions
      At line 61 in file startup_stm32l073xx.s
   Uses
      At line 246 in file startup_stm32l073xx.s
Comment: __heap_base used once
__heap_limit 00000400

Symbol: __heap_limit
   Definitions
      At line 63 in file startup_stm32l073xx.s
   Uses
      At line 247 in file startup_stm32l073xx.s
Comment: __heap_limit used once
4 symbols



ARM Macro Assembler    Page 1 Alphabetic symbol ordering
Relocatable symbols

RESET 00000000

Symbol: RESET
   Definitions
      At line 70 in file startup_stm32l073xx.s
   Uses
      None
Comment: RESET unused
__Vectors 00000000

Symbol: __Vectors
   Definitions
      At line 75 in file startup_stm32l073xx.s
   Uses
      At line 71 in file startup_stm32l073xx.s
      At line 128 in file startup_stm32l073xx.s

__Vectors_End 000000C0

Symbol: __Vectors_End
   Definitions
      At line 126 in file startup_stm32l073xx.s
   Uses
      At line 72 in file startup_stm32l073xx.s
      At line 128 in file startup_stm32l073xx.s

3 symbols



ARM Macro Assembler    Page 1 Alphabetic symbol ordering
Relocatable symbols

.text 00000000

Symbol: .text
   Definitions
      At line 130 in file startup_stm32l073xx.s
   Uses
      None
Comment: .text unused
ADC1_COMP_IRQHandler 00000012

Symbol: ADC1_COMP_IRQHandler
   Definitions
      At line 214 in file startup_stm32l073xx.s
   Uses
      At line 105 in file startup_stm32l073xx.s
      At line 181 in file startup_stm32l073xx.s

DMA1_Channel1_IRQHandler 00000012

Symbol: DMA1_Channel1_IRQHandler
   Definitions
      At line 211 in file startup_stm32l073xx.s
   Uses
      At line 102 in file startup_stm32l073xx.s
      At line 178 in file startup_stm32l073xx.s

DMA1_Channel2_3_IRQHandler 00000012

Symbol: DMA1_Channel2_3_IRQHandler
   Definitions
      At line 212 in file startup_stm32l073xx.s
   Uses
      At line 103 in file startup_stm32l073xx.s
      At line 179 in file startup_stm32l073xx.s

DMA1_Channel4_5_6_7_IRQHandler 00000012

Symbol: DMA1_Channel4_5_6_7_IRQHandler
   Definitions
      At line 213 in file startup_stm32l073xx.s
   Uses
      At line 104 in file startup_stm32l073xx.s
      At line 180 in file startup_stm32l073xx.s

Default_Handler 00000012

Symbol: Default_Handler
   Definitions
      At line 167 in file startup_stm32l073xx.s
   Uses
      None
Comment: Default_Handler unused
EXTI0_1_IRQHandler 00000012

Symbol: EXTI0_1_IRQHandler
   Definitions
      At line 207 in file startup_stm32l073xx.s
   Uses
      At line 98 in file startup_stm32l073xx.s



ARM Macro Assembler    Page 2 Alphabetic symbol ordering
Relocatable symbols

      At line 174 in file startup_stm32l073xx.s

EXTI2_3_IRQHandler 00000012

Symbol: EXTI2_3_IRQHandler
   Definitions
      At line 208 in file startup_stm32l073xx.s
   Uses
      At line 99 in file startup_stm32l073xx.s
      At line 175 in file startup_stm32l073xx.s

EXTI4_15_IRQHandler 00000012

Symbol: EXTI4_15_IRQHandler
   Definitions
      At line 209 in file startup_stm32l073xx.s
   Uses
      At line 100 in file startup_stm32l073xx.s
      At line 176 in file startup_stm32l073xx.s

FLASH_IRQHandler 00000012

Symbol: FLASH_IRQHandler
   Definitions
      At line 205 in file startup_stm32l073xx.s
   Uses
      At line 96 in file startup_stm32l073xx.s
      At line 172 in file startup_stm32l073xx.s

HardFault_Handler 0000000A

Symbol: HardFault_Handler
   Definitions
      At line 150 in file startup_stm32l073xx.s
   Uses
      At line 78 in file startup_stm32l073xx.s
      At line 151 in file startup_stm32l073xx.s

I2C1_IRQHandler 00000012

Symbol: I2C1_IRQHandler
   Definitions
      At line 223 in file startup_stm32l073xx.s
   Uses
      At line 116 in file startup_stm32l073xx.s
      At line 190 in file startup_stm32l073xx.s

I2C2_IRQHandler 00000012

Symbol: I2C2_IRQHandler
   Definitions
      At line 224 in file startup_stm32l073xx.s
   Uses
      At line 117 in file startup_stm32l073xx.s
      At line 191 in file startup_stm32l073xx.s

I2C3_IRQHandler 00000012

Symbol: I2C3_IRQHandler



ARM Macro Assembler    Page 3 Alphabetic symbol ordering
Relocatable symbols

   Definitions
      At line 225 in file startup_stm32l073xx.s
   Uses
      At line 114 in file startup_stm32l073xx.s
      At line 192 in file startup_stm32l073xx.s

LCD_IRQHandler 00000012

Symbol: LCD_IRQHandler
   Definitions
      At line 231 in file startup_stm32l073xx.s
   Uses
      At line 123 in file startup_stm32l073xx.s
      At line 198 in file startup_stm32l073xx.s

LPTIM1_IRQHandler 00000012

Symbol: LPTIM1_IRQHandler
   Definitions
      At line 215 in file startup_stm32l073xx.s
   Uses
      At line 106 in file startup_stm32l073xx.s
      At line 182 in file startup_stm32l073xx.s

NMI_Handler 00000008

Symbol: NMI_Handler
   Definitions
      At line 145 in file startup_stm32l073xx.s
   Uses
      At line 77 in file startup_stm32l073xx.s
      At line 146 in file startup_stm32l073xx.s

PVD_IRQHandler 00000012

Symbol: PVD_IRQHandler
   Definitions
      At line 203 in file startup_stm32l073xx.s
   Uses
      At line 94 in file startup_stm32l073xx.s
      At line 170 in file startup_stm32l073xx.s

PendSV_Handler 0000000E

Symbol: PendSV_Handler
   Definitions
      At line 158 in file startup_stm32l073xx.s
   Uses
      At line 89 in file startup_stm32l073xx.s
      At line 159 in file startup_stm32l073xx.s

RCC_CRS_IRQHandler 00000012

Symbol: RCC_CRS_IRQHandler
   Definitions
      At line 206 in file startup_stm32l073xx.s
   Uses
      At line 97 in file startup_stm32l073xx.s
      At line 173 in file startup_stm32l073xx.s



ARM Macro Assembler    Page 4 Alphabetic symbol ordering
Relocatable symbols


RNG_LPUART1_IRQHandler 00000012

Symbol: RNG_LPUART1_IRQHandler
   Definitions
      At line 230 in file startup_stm32l073xx.s
   Uses
      At line 122 in file startup_stm32l073xx.s
      At line 197 in file startup_stm32l073xx.s

RTC_IRQHandler 00000012

Symbol: RTC_IRQHandler
   Definitions
      At line 204 in file startup_stm32l073xx.s
   Uses
      At line 95 in file startup_stm32l073xx.s
      At line 171 in file startup_stm32l073xx.s

Reset_Handler 00000000

Symbol: Reset_Handler
   Definitions
      At line 133 in file startup_stm32l073xx.s
   Uses
      At line 76 in file startup_stm32l073xx.s
      At line 134 in file startup_stm32l073xx.s

SPI1_IRQHandler 00000012

Symbol: SPI1_IRQHandler
   Definitions
      At line 226 in file startup_stm32l073xx.s
   Uses
      At line 118 in file startup_stm32l073xx.s
      At line 193 in file startup_stm32l073xx.s

SPI2_IRQHandler 00000012

Symbol: SPI2_IRQHandler
   Definitions
      At line 227 in file startup_stm32l073xx.s
   Uses
      At line 119 in file startup_stm32l073xx.s
      At line 194 in file startup_stm32l073xx.s

SVC_Handler 0000000C

Symbol: SVC_Handler
   Definitions
      At line 154 in file startup_stm32l073xx.s
   Uses
      At line 86 in file startup_stm32l073xx.s
      At line 155 in file startup_stm32l073xx.s

SysTick_Handler 00000010

Symbol: SysTick_Handler
   Definitions



ARM Macro Assembler    Page 5 Alphabetic symbol ordering
Relocatable symbols

      At line 162 in file startup_stm32l073xx.s
   Uses
      At line 90 in file startup_stm32l073xx.s
      At line 163 in file startup_stm32l073xx.s

TIM21_IRQHandler 00000012

Symbol: TIM21_IRQHandler
   Definitions
      At line 221 in file startup_stm32l073xx.s
   Uses
      At line 113 in file startup_stm32l073xx.s
      At line 188 in file startup_stm32l073xx.s

TIM22_IRQHandler 00000012

Symbol: TIM22_IRQHandler
   Definitions
      At line 222 in file startup_stm32l073xx.s
   Uses
      At line 115 in file startup_stm32l073xx.s
      At line 189 in file startup_stm32l073xx.s

TIM2_IRQHandler 00000012

Symbol: TIM2_IRQHandler
   Definitions
      At line 217 in file startup_stm32l073xx.s
   Uses
      At line 108 in file startup_stm32l073xx.s
      At line 184 in file startup_stm32l073xx.s

TIM3_IRQHandler 00000012

Symbol: TIM3_IRQHandler
   Definitions
      At line 218 in file startup_stm32l073xx.s
   Uses
      At line 109 in file startup_stm32l073xx.s
      At line 185 in file startup_stm32l073xx.s

TIM6_DAC_IRQHandler 00000012

Symbol: TIM6_DAC_IRQHandler
   Definitions
      At line 219 in file startup_stm32l073xx.s
   Uses
      At line 110 in file startup_stm32l073xx.s
      At line 186 in file startup_stm32l073xx.s

TIM7_IRQHandler 00000012

Symbol: TIM7_IRQHandler
   Definitions
      At line 220 in file startup_stm32l073xx.s
   Uses
      At line 111 in file startup_stm32l073xx.s
      At line 187 in file startup_stm32l073xx.s




ARM Macro Assembler    Page 6 Alphabetic symbol ordering
Relocatable symbols

TSC_IRQHandler 00000012

Symbol: TSC_IRQHandler
   Definitions
      At line 210 in file startup_stm32l073xx.s
   Uses
      At line 101 in file startup_stm32l073xx.s
      At line 177 in file startup_stm32l073xx.s

USART1_IRQHandler 00000012

Symbol: USART1_IRQHandler
   Definitions
      At line 228 in file startup_stm32l073xx.s
   Uses
      At line 120 in file startup_stm32l073xx.s
      At line 195 in file startup_stm32l073xx.s

USART2_IRQHandler 00000012

Symbol: USART2_IRQHandler
   Definitions
      At line 229 in file startup_stm32l073xx.s
   Uses
      At line 121 in file startup_stm32l073xx.s
      At line 196 in file startup_stm32l073xx.s

USART4_5_IRQHandler 00000012

Symbol: USART4_5_IRQHandler
   Definitions
      At line 216 in file startup_stm32l073xx.s
   Uses
      At line 107 in file startup_stm32l073xx.s
      At line 183 in file startup_stm32l073xx.s

USB_IRQHandler 00000012

Symbol: USB_IRQHandler
   Definitions
      At line 232 in file startup_stm32l073xx.s
   Uses
      At line 124 in file startup_stm32l073xx.s
      At line 199 in file startup_stm32l073xx.s

WWDG_IRQHandler 00000012

Symbol: WWDG_IRQHandler
   Definitions
      At line 202 in file startup_stm32l073xx.s
   Uses
      At line 93 in file startup_stm32l073xx.s
      At line 169 in file startup_stm32l073xx.s

39 symbols



ARM Macro Assembler    Page 1 Alphabetic symbol ordering
Absolute symbols

Heap_Size 00000400

Symbol: Heap_Size
   Definitions
      At line 58 in file startup_stm32l073xx.s
   Uses
      At line 62 in file startup_stm32l073xx.s
Comment: Heap_Size used once
Stack_Size 00000800

Symbol: Stack_Size
   Definitions
      At line 47 in file startup_stm32l073xx.s
   Uses
      At line 50 in file startup_stm32l073xx.s
Comment: Stack_Size used once
__Vectors_Size 000000C0

Symbol: __Vectors_Size
   Definitions
      At line 128 in file startup_stm32l073xx.s
   Uses
      At line 73 in file startup_stm32l073xx.s
Comment: __Vectors_Size used once
3 symbols



ARM Macro Assembler    Page 1 Alphabetic symbol ordering
External symbols

SystemInit 00000000

Symbol: SystemInit
   Definitions
      At line 136 in file startup_stm32l073xx.s
   Uses
      At line 137 in file startup_stm32l073xx.s
Comment: SystemInit used once
__main 00000000

Symbol: __main
   Definitions
      At line 135 in file startup_stm32l073xx.s
   Uses
      At line 139 in file startup_stm32l073xx.s
Comment: __main used once
2 symbols
391 symbols in table
